:100000000C9435280C9462280C9462280C94622875
:100010000C9462280C9462280C9462280C94622838
:100020000C9462280C9462280C9462280C94622828
:100030000C9462280C947EFC0C9462280C94622828
:100040000C9462280C9400BD0C9462280C946228D5
:100050000C9462280C9462280C94F4C40C94F3FF62
:100060000C9462280C94287D0C9462280C946228CD
:100070000C9462280C9462280C9462280C946228D8
:100080000C9462280C9462280C9462280C946228C8
:100090000C9462280C9462280C9462280C946228B8
:1000A0000C9462280C9462280C9462280C946228A8
:1000B0000C9462280C9462280C9462280C94622898
:1000C0000C9462280C9462280C9462280C94622888
:1000D0000C9462280C9462280C9462280C94622878
:1000E0000C946228084AD73B3BCE016E84BCBFFD0E
:1000F000C12F3D6C74319ABD56833DDA3D00C77FF8
:1001000011BED9E4BB4C3E916BAAAABE0000008090
:100110003F05A84CCDB2D44EB93836A9020C50B91F
:10012000918688083CA6AAAA2ABE000000803F4DFE
:10013000383420582059205A20450043616E6E6F94
:100140007420656E746572207375626469723A20FA
:10015000004D3234004D3233202573006175746FC9
:1001600025692E67006572726F72207772697469F3
:100170006E6720746F2066696C65004E6F74205343
:1001800044207072696E74696E67002F00534420BA
:100190007072696E74696E67206279746520002ED2
:1001A0000044656C6574696F6E206661696C656496
:1001B0002C2046696C653A200046696C65206465B0
:1001C0006C657465643A002E006F70656E20666120
:1001D000696C65642C2046696C653A200057726929
:1001E00074696E6720746F2066696C653A20002E12
:1001F000006F70656E206661696C65642C204669CD
:100200006C653A20002E006F70656E206661696C27
:1002100065642C2046696C653A200046696C65204F
:1002200073656C6563746564002053697A653A2070
:100230000046696C65206F70656E65643A20002E1B
:10024000006F70656E206661696C65642C2046697C
:100250006C653A20004E6F77206672657368206681
:10026000696C653A20004E6F7720646F696E672075
:1002700066696C653A20002220706F73002220703E
:100280006172656E743A2200535542524F5554497B
:100290004E452043414C4C207461726765743A228C
:1002A00000747279696E6720746F2063616C6C20D2
:1002B0007375622D67636F64652066696C65732072
:1002C0007769746820746F6F206D616E79206C653A
:1002D00076656C732E204D4158206C6576656C20D8
:1002E00069733A0053442063617264206F6B006F3E
:1002F00070656E526F6F74206661696C656400761C
:100300006F6C756D652E696E6974206661696C65C8
:100310006400534420696E6974206661696C00480A
:10032000617264636F6465642044656661756C74B2
:100330002053657474696E6773204C6F61646564E3
:100340000053746F7265642073657474696E6773AB
:1003500020726574726965766564002044002049E6
:10036000002020204D33303120500050494420736C
:10037000657474696E67733A00205A002059002032
:10038000204D323036205800486F6D65206F66660C
:1003900073657420286D6D293A00204500205A00AD
:1003A00020580020420020540020204D32303520BB
:1003B0005300416476616E636564207661726961A1
:1003C000626C65733A20533D4D696E2066656564C5
:1003D0007261746520286D6D2F73292C20543D4D5A
:1003E000696E2074726176656C2066656564726101
:1003F000746520286D6D2F73292C20423D6D696E28
:10040000696D756D207365676D656E742074696DB7
:100410006520286D73292C20583D6D6178696D75B4
:100420006D205859206A65726B20286D6D2F7329D5
:100430002C20205A3D6D6178696D756D205A206AB7
:1004400065726B20286D6D2F73292C2020453D6D22
:100450006178696D756D2045206A65726B20286D25
:100460006D2F73290020540020204D32303420534A
:1004700000416363656C65726174696F6E3A205305
:100480003D616363656C65726174696F6E2C2054A5
:100490003D7265747261637420616363656C65723B
:1004A0006174696F6E00204500205A0020590020B9
:1004B000204D3230312058004D6178696D756D20C6
:1004C000416363656C65726174696F6E20286D6D40
:1004D0002F7332293A00204500205A00205900206D
:1004E000204D3230332058004D6178696D756D2094
:1004F00066656564726174657320286D6D2F73295C
:100500003A00204500205A0020590020204D393261
:1005100020580053746570732070657220756E6981
:10052000743A005A70726F62653A200053657474B1
:10053000696E67732053746F726564004572726FE1
:10054000723A006563686F3A00504152414441007D
:100550005072696E7465722073746F707065642078
:1005600064756520746F206572726F72732E2046F9
:10057000697820746865206572726F7220616E649C
:1005800020757365204D39393920746F2072657379
:10059000746172742E202854656D70657261747573
:1005A00072652069732072657365742E20536574BB
:1005B000206974206166746572207265737461725B
:1005C00074696E67290050415241444120444520DE
:1005D000454D4552472E005072696E746572206811
:1005E000616C7465642E206B696C6C2829206361D2
:1005F0006C6C656421006F6B00526573656E643AC4
:1006000020002200556E6B6E6F776E20636F6D6DEC
:10061000616E643A20220043616D626961722066F6
:10062000696C616D656E746F004F666673657420EA
:100630005A203A20007A5F6D61783A20007A5F6D27
:10064000696E3A20004F6666736574205A004F66E3
:1006500066736574205A206F6B006C636420636F4F
:100660006E74726173742076616C75653A20007ADD
:100670005F6D696E3A2000795F6D696E3A2000788F
:100680005F6D696E3A2000205A3A0020593A0020E6
:10069000436F756E7420583A200020453A00205A66
:1006A0003A0020593A00583A004649524D574152B3
:1006B000455F4E414D453A4D61726C696E20563131
:1006C0002E302E323B20537072696E7465722F6724
:1006D00072626C206D617368757020666F7220673E
:1006E000656E36204649524D574152455F55524C32
:1006F0003A68747470733A2F2F6769746875622E44
:10070000636F6D2F4D61726C696E4669726D7761B2
:1007100072652F4D61726C696E2050524F544F4379
:100720004F4C5F56455253494F4E3A312E30204D73
:10073000414348494E455F545950453A44494D411B
:1007400020424F582045585452554445525F434F1C
:10075000554E543A3120555549443A3030303030B6
:100760003030302D303030302D303030302D303092
:1007700030302D3030303030303030303030300AA2
:100780000044494D4120424F58204F66662E004498
:10079000494D4120424F582070726570617261640A
:1007A000610042656420646F6E652E0020423A004D
:1007B00020453A00543A00426564204865617469F6
:1007C0006E672E0048656174696E6720646F6E65A0
:1007D0002E0020573A0020453A00543A00486561FF
:1007E00074696E672E2E2E002042403A0020403A57
:1007F00000202F003A00205400202F0020423A0011
:10080000202F006F6B20543A000A0A005374616E67
:100810006461726420446576696174696F6E3A2020
:10082000000A004D65616E3A20000A002020207AFF
:100830003A200000793A2000783A20003F53706552
:10084000636966696564206E756D626572206F66A6
:10085000206C65677320696E206D6F76656D656EBF
:1008600074206E6F7420706C61757361626C652E9C
:100870000A003F537065636966696564205920709A
:100880006F736974696F6E206F7574206F66207264
:10089000616E67652E0A003F53706563696669651E
:1008A00064205820706F736974696F6E206F75745F
:1008B000206F662072616E67652E0A003F53706577
:1008C0006369666965642073616D706C6520736926
:1008D0007A65206E6F7420706C61757361626C65EF
:1008E0002E0A0046756C6C20737570706F727420E0
:1008F00061743A20687474703A2F2F33647072698F
:100900006E74626F6172642E636F6D2F666F7275A5
:100910006D2E7068700A004D3438205A2D50726F59
:100920006265205265706561746162696C69747991
:1009300020746573742E20202056657273696F6E63
:1009400020322E30300A003F566572626F73652088
:100950004C6576656C206E6F7420706C6175736188
:10096000626C652E0A002569206D696E2C20256950
:100970002073656300456E642066696C65206C6950
:10098000737400426567696E2066696C65206C69E6
:1009900073740053696E206D6F76696D69656E744E
:1009A0006F0044494D4120424F582070726570617C
:1009B00072616461005265616E7564616E646F207E
:1009C000696D7072652E004573706572616E646F3B
:1009D000206F7264656E6573000A00205A3A200029
:1009E00020593A200020583A2000426173650020C7
:1009F000643A200020623A200045716E20636F65E2
:100A00006666696369656E74733A20613A200052C4
:100A100065696E696369617220582F592079205A7F
:100A2000005265696E696369617220582F59207997
:100A3000205A004175746F6E6976656C61646F0051
:100A40004175746F6E6976656C61646F005265699B
:100A50006E696369617220582F592079205A0052BB
:100A600065696E696369617220582F592079205A2F
:100A7000004D383420582059205A2045004732383C
:100A80002058005265706F736F2E2E2E00FFFFFFEF
:100A90000000184300002F43000025430000A04041
:100AA0000000A04000000040000000000000000026
:100AB0000000000000000000000000000000000036
:100AC0000000184300002F43000025430A00207A4D
:100AD0003A200020793A200020783A2000426173C1
:100AE0006500256920686F757273202569206D691E
:100AF0006E7574657300446F6E65207072696E74F4
:100B0000696E672066696C6500504152414441003E
:100B10005072696E7465722073746F7070656420B2
:100B200064756520746F206572726F72732E204633
:100B3000697820746865206572726F7220616E64D6
:100B400020757365204D39393920746F20726573B3
:100B5000746172742E202854656D706572617475AD
:100B600072652069732072657365742E20536574F5
:100B70002069742061667465722072657374617295
:100B800074696E6729004E6F204C696E65204E7542
:100B90006D626572207769746820636865636B7342
:100BA000756D2C204C617374204C696E653A200081
:100BB0004E6F20436865636B73756D207769746849
:100BC000206C696E65206E756D6265722C204C61BB
:100BD0007374204C696E653A2000636865636B73BB
:100BE000756D206D69736D617463682C204C617341
:100BF00074204C696E653A20004C696E65204E7514
:100C00006D626572206973206E6F74204C6173741D
:100C1000204C696E65204E756D6265722B312C20FB
:100C20004C617374204C696E653A20004D3131304F
:100C300000446F6E6520736176696E672066696C2B
:100C4000652E006F6B004D3239002020506C616EB4
:100C50006E657242756666657242797465733A2094
:100C6000002046726565204D656D6F72793A2000EF
:100C70004A756E203139203230313500436F6D7046
:100C8000696C65643A2000286E6F6E652C2064657F
:100C90006661756C7420636F6E6669672900207CDD
:100CA00020417574686F723A20004A756E203139A0
:100CB00020323031352031393A31363A3030002067
:100CC0004C61737420557064617465643A2000311E
:100CD0002E302E32004D61726C696E0020536F66AB
:100CE0007477617265205265736574002057617472
:100CF0006368646F67205265736574002042726F89
:100D0000776E206F75742052657365740020457886
:100D10007465726E616C20526573657400506F77F4
:100D200065725570007374617274002200656E7193
:100D30007565696E672022002200656E71756569B0
:100D40006E6720220020746F6F206C6F6E672065C5
:100D50007874727573696F6E2070726576656E74E3
:100D600065640020636F6C642065787472757369C4
:100D70006F6E2070726576656E746564007C3C3EB3
:100D80005E2B3D3F2F5B5D3B2C2A225C0045303AB9
:100D900020005A3A2000593A2000583A20004D537A
:100DA000312C4D53322050696E730A0024F404D95B
:100DB000201BC40C5C0E9804C4095F026507710116
:100DC000F405F900FB04B30048048700C10369007F
:100DD0005803550003034500BE023A008402310067
:100DE00053022A002902250004022000E4011C000D
:100DF000C8011900AF011700980114008401130005
:100E0000710110006101100051010E0043010D003D
:100E100036010B002B010B0020010B00150109000E
:100E20000C01090003010800FB000800F3000800A2
:100E3000EB000700E4000600DE000600D800060014
:100E4000D2000600CC000500C7000500C200050066
:100E5000BD000400B9000400B5000400B1000400A6
:100E6000AD000400A9000400A5000300A2000300D7
:100E70009F0004009B0003009800030095000200FF
:100E800093000300900003008D0002008B0003001C
:100E90008800020086000200840003008100020036
:100EA0007F0002007D0002007B000200790002004A
:100EB0007700010076000200740002007200010059
:100EC000710002006F0002006D0001006C00020062
:100ED0006A0001006900020067000100660001006D
:100EE0006500010064000200620001006100010071
:100EF000600001005F0002005D0001005C00010075
:100F00005B0001005A000100590001005800010077
:100F10005700010056000100550001005400010077
:100F20005300000053000100520001005100010075
:100F3000500001004F0001004E0000004E00010073
:100F40004D0001004C0001004B0000004B0001006F
:100F50004A0001004900010048000000480001006B
:100F60004700010046000000460001004500000067
:100F7000450001004400010043000000430001005F
:100F80004200000042000100410000004100010059
:100F9000400001003F0000003F0001003E00000053
:100FA0003E0001003D0000003D0001003C0000004B
:100FB0003C0000003C0001003B0000003B00010041
:100FC0003A0000003A000100390000003900010039
:100FD0003800000038000000380001003700000031
:100FE0003700010036000000360000003600010026
:100FF000350000003500000035000100340000001D
:101000003400000034000100330000003300000011
:101010003300010032000000320000003200010005
:1010200031000000310000003100010030000000FC
:1010300030000000300001002F0000002F000000F1
:101040002F0000002F0001002E0000002E000000E5
:101050002E0001002D0000002D0000002D000000DA
:101060002D0001002C0000002C0000002C000000CE
:101070002C0001002B0000002B0000002B000000C2
:101080002B0001002A0000002A0000002A000000B6
:101090002A000100290000002900000029000000AA
:1010A000290000002900010028000000280000009D
:1010B0002800000028000000280001002700000090
:1010C0002700000027000000270000002700010083
:1010D0002600000026000000260000002600000078
:1010E000260001002500000025000000250000006A
:1010F000250000002500000025000100240000005C
:10110000240000002400000024000000240001004E
:101110002300000023000000230000002300000043
:101120002300000023000000230001002200000033
:101130002200000022000000220000002200000027
:101140002200010021000000210000002100000019
:10115000210000002100000021000000210001000A
:1011600020000000200000002000000020000000FF
:1011700020000000200000002000000020000100EE
:101180001F0000001F0000001F0000001F000000E3
:101190001F0000001F0000001F0001001E000000D3
:1011A0001E0000001E0000001E00000024F4D430C9
:1011B00050C38E20C2A24017828B7011127A910DFB
:1011C000816CD90AA861E108C758660761514306D6
:1011D0001E4B5D05C145A7041A411104093D980342
:1011E000713931034036DB0265339102D430540249
:1011F000802E1D02632CEE01752AC501B028A001C6
:10120000102781018F2564012B244B01E02234013A
:10121000AC211F018D200D01801FFC00841EED00FC
:10122000971DDF00B81CD200E61BC600201BBC00C7
:10123000641AB200B219A8000A19A0006A1899002D
:10124000D117910040178B00B516840031167E002F
:10125000B31579003A157300C7146F0058146A006B
:10126000EE1366008813630025135E00C7125B004F
:101270006C12570015125400C111510070114F002B
:1012800021114B00D61049008D1047004610440034
:1012900002104200C00F4000800F3E00420F3C0091
:1012A000060F3B00CB0E3800930E37005C0E350066
:1012B000270E3400F30D3200C10D3100900D3000C7
:1012C000600D2E00320D2D00050D2C00D90C2B00C9
:1012D000AE0C2900850C29005C0C2700350C27007A
:1012E0000E0C2600E80B2400C40B2400A00B2300E6
:1012F0007D0B23005A0B2100390B2100180B200015
:10130000F80A1F00D90A1E00BB0A1E009D0A1D0014
:10131000800A1D00630A1C00470A1B002C0A1B00E0
:10132000110A1A00F7091A00DD091900C409190089
:10133000AB091900920917007B091800630917000F
:101340004C09160036091600200916000A09150076
:10135000F5081500E0081400CC081400B8081400C3
:10136000A4081400900813007D0812006B081300F5
:101370005808120046081200340811002308110012
:101380001208110001081100F0071000E00710001A
:10139000D0071000C0071000B0070F00A107100011
:1013A00091070E0083070F0074070F0065070E00FA
:1013B00057070E0049070E003B070D002E070E00D1
:1013C00020070D0013070D0006070D00F9060C009D
:1013D000ED060D00E0060C00D4060C00C8060C005B
:1013E000BC060C00B0060C00A4060B0099060C000D
:1013F0008D060B0082060B0077060B006C060B00B7
:1014000061060A0057060B004C060A0042060A0055
:1014100038060A002E060A0024060A001A060A00E8
:101420001006090007060A00FD050900F405090079
:10143000EB050900E2050900D9050900D0050900FE
:10144000C7050900BE050900B5050800AD0508007F
:10145000A50509009C050800940508008C050800F6
:10146000840508007C050800740508006C05070069
:10147000650508005D050700560508004E050700D4
:10148000470507004005080038050700310507003B
:101490002A050700230507001C050600160507009E
:1014A0000F0507000805060002050700FB040600FB
:1014B000F5040700EE040600E8040600E204070055
:1014C000DB040600D5040600CF040600C9040600AC
:1014D000C3040600BD040600B7040600B1040500FD
:1014E000AC040600A6040600A00405009B04060048
:1014F00095040500900406008A0405008504050093
:10150000800406007A0405007504050070040500D7
:101510006B04050066040500610405005C04050019
:1015200057040500520405004D0405004804050059
:10153000430405003E0404003A0405003504050098
:10154000300404002C0405002704040023040500D3
:101550001E0404001A04040016040500110404000B
:101560000D04040009040500040404000004040040
:10157000FC030400F8030400F4030400F003040077
:10158000EC030400E8030400E4030400E0030400A7
:10159000DC030400D8030400D4030400D0030400D7
:1015A000CC030400C8030300C5030300656E647325
:1015B000746F7073206869743A205A00205A3A0098
:1015C000656E6473746F7073206869743A20590093
:1015D00020593A00656E6473746F70732068697483
:1015E0003A20580020583A00656E6473746F707327
:1015F000206869743A20004572723A204D4158546F
:10160000454D50204245440054656D7065726174CB
:101610007572652068656174656420626564207315
:1016200077697463686564206F66662E204D415843
:1016300054454D5020747269676765726564202156
:1016400021004572723A204D494E54454D50003AA2
:101650002045787472756465722073776974636865
:101660006564206F66662E204D494E54454D5020CE
:101670007472696767657265642021004572723A09
:10168000204D415854454D50003A204578747275AC
:10169000646572207377697463686564206F666639
:1016A0002E204D415854454D50207472696767652E
:1016B000726564202100202D20496E76616C69647A
:1016C000206578747275646572206E756D626572DE
:1016D00020210010005003E0012C012002220170A3
:1016E000021801E0020E0150030401F003FA00A009
:1016F00004F0007005E6008006DC00C007D2004060
:1017000009C800000BBE00300DB400C00FAA00D005
:1017100012A00050169600401A8C00901E820020E5
:10172000237800C0276E00402C640070305A0030CF
:1017300034500040374600C0393C00B03B32001006
:101740003D2800103E1E00C03E1400403F0A0080AD
:101750003F0000504944204175746F74756E6520D8
:1017600066696E69736865642120507574207468B9
:1017700065206C617374204B702C204B6920616E66
:1017800064204B6420636F6E7374616E74732066A3
:10179000726F6D2061626F766520696E746F204391
:1017A0006F6E66696775726174696F6E2E6800503E
:1017B0004944204175746F74756E65206661696C6B
:1017C0006564212074696D656F75740020403A006E
:1017D0006F6B20543A006F6B20423A00504944200E
:1017E0004175746F74756E65206661696C656421FE
:1017F0002054656D706572617475726520746F6FC9
:10180000206869676800204B643A2000204B693AE1
:101810002000204B703A200020436C617373696391
:101820002050494420002054753A2000204B753A3E
:101830002000206D61783A2000206D696E3A20000A
:1018400020643A200020626961733A200000091286
:1018500000FC0A01E803D720FFFD0EFD0BFD000090
:101860000009000E010B0B0904008080808080803D
:101870008000008080040404090307909090900881
:101880000A0A090000242424FF2424FF2424240716
:101890000B0B0901FF107C929050381412927C10AF
:1018A000070A0A09010042A4A4481010244A4A84E5
:1018B000070A0A090100609090906062948894621F
:1018C00001040409040780808080030C0C0903FFD5
:1018D000204040808080808080404020030C0C09A4
:1018E00003FF804040202020202020404080070728
:1018F0000709010310925438549210070707090191
:1019000001101010FE1010100204040904FEC0C0E3
:101910004080070101090104FE020202090400C01F
:10192000C0070A0A09010002040408101020404000
:1019300080070A0A09010038448282828282824436
:1019400038070A0A090100103050901010101010CA
:10195000FE070A0A090100384482020408102040E8
:10196000FE070A0A090100FE0204081804020284A4
:1019700078070A0A090100040C14244484FE0404B4
:1019800004070A0A090100FE808080F8040202842C
:1019900078070A0A0901003C408080B8C48282446A
:1019A00038070A0A090100FE020404080810101092
:1019B00010070A0A090100384482443844828244EC
:1019C00038070A0A09010038448282463A020204B2
:1019D00078020707090400C0C0000000C0C0020967
:1019E000090904FEC0C0000000C0C040800509090C
:1019F0000902000810204080402010080704040954
:101A00000102FE0000FE05090909020080402010C5
:101A10000810204080070A0A0901003844820204A5
:101A20000810100010070A0A09010038449AAAAAEF
:101A3000AAAA9C403C070A0A090100102828284449
:101A40007C44828282070A0A090100F8848284F8B1
:101A500084828284F8070A0A0901003C428080805F
:101A6000808080423C070A0A090100F88482828251
:101A700082828284F8070A0A090100FE808080F8C9
:101A800080808080FE070A0A090100FE808080F8BD
:101A90008080808080070A0A0901003844828080A3
:101AA0008E82824438070A0A09010082828282FEFD
:101AB0008282828282050A0A090200F82020202000
:101AC00020202020F8070A0A0901003E080808081B
:101AD0000808888870070A0A09010082848890A093
:101AE000D088848282070A0A090100808080808071
:101AF00080808080FE070A0A0901008282C6AA92BD
:101B00008282828282070A0A0901008282C2A2922C
:101B10008A86828282070A0A0901007C8282828286
:101B2000828282827C070A0A090100F88482828408
:101B3000F880808080080B0B0901FF384482828284
:101B400082828A443A01070A0A090100F8848282E3
:101B500084F890888482070A0A0901007C828080C8
:101B60007C020202827C070A0A090100FE101010A2
:101B7000101010101010070A0A09010082828282D8
:101B8000828282824438070A0A09010082828244E2
:101B9000444428282810070A0A0901008282828208
:101BA00092929292AA44070A0A090100828244286A
:101BB000101028448282070A0A0901008282442800
:101BC000101010101010070A0A090100FE02040884
:101BD0001020408080FE040C0C0903FFF080808000
:101BE00080808080808080F0070A0A0901008040A0
:101BF0004020101008040402040C0C0902FFF0102D
:101C0000101010101010101010F007040409010635
:101C1000102844820801010900FFFF0303030903A0
:101C20000A8040200707070901007C02027E8286A5
:101C30007A070A0A090100808080BCC2828282C2BF
:101C4000BC0707070901007C82808080827C070A2C
:101C50000A0901000202027A86828282867A0707D6
:101C6000070901007C8282FE80827C070A0A090142
:101C7000001C22222020F820202020070A0A090127
:101C8000FD7A84848478807C82827C070A0A090138
:101C900000808080BCC28282828282050A0A090298
:101CA00000600000E02020202020F8050D0D090232
:101CB000FD18000038080808080808888870070A16
:101CC0000A090100808080848890B0C88482050A57
:101CD0000A090200E02020202020202020F8070709
:101CE00007090100EC92929292928207070709017C
:101CF00000BCC282828282820707070901007C82BF
:101D0000828282827C070A0A0901FDB8C48282822B
:101D1000C4B8808080070A0A0901FD3A468282829F
:101D2000463A0202020707070901009C624240404E
:101D300040400707070901007C82807C02827C0703
:101D400009090901002020FC20202020221C07076F
:101D5000070901008282828282867A0707070901C9
:101D60000082824444282810070707090100828264
:101D7000929292AA4407070709010082442810287A
:101D80004482070A0A0901FD42422424241818103B
:101D90009060070707090100FE0408102040FE06B6
:101DA0000B0B0902001C20202020C0202020201C1A
:101DB000010C0C0904FF80808080808080808080FE
:101DC0008080060B0B090100E0101010100C1010A1
:101DD0001010E007030309010762928CFFFFFFFF69
:101DE000FFFFFFFFFFFFFFFFFFFFFFFFFFFFFFFF03
:101DF000FFFFFFFFFFFFFFFFFFFFFFFFFF000000F0
:101E000009000E010B0B0904008080000080808017
:101E10008080808006080809010008789490A0A4BA
:101E20007840070A0A0901001C222020F8202060BF
:101E3000A25C070606090103827C44447C82070AEF
:101E40000A090100828244287C107C101010010BCA
:101E50000B0904FF80808080800080808080800467
:101E60000B0B0902FF609080609090906010906072
:101E700003020209030BA0A00809090900013C4262
:101E800099A5A1A599423C05070709010360907037
:101E9000907800F80708080901011224489090483A
:101EA0002412060404090102FC04040405010109CA
:101EB0000204F80809090900013C42B9A5BDA9A519
:101EC000423C060101090109FC04040409030660FF
:101ED000909060070909090101101010FE10101000
:101EE00000FE0406060901046090106080F00406FC
:101EF0000609010460902010906003030309030A9F
:101F00002040800709090901FE8282828282C6BAC6
:101F10008080070A0A0901007E8A8A8A7A0A0A0AE8
:101F20000A0A020202090404C0C00403030902FDF4
:101F300020906003060609010440C0404040E005CF
:101F400006060901047088887000F807080809016E
:101F5000019048241212244890070A0A09010040FF
:101F6000C0404042E60A121A06070A0A0901004068
:101F7000C040404CF2020C101E070A0A0901006022
:101F800090201092660A121A06070A0A0901001028
:101F900000101020408082827C070E0E0901002074
:101FA00010080010282828447C44828282070E0EE4
:101FB0000901000810200010282828447C4482824F
:101FC00082070E0E0901001028440010282828441A
:101FD0007C44828282070D0D0901003458001028CC
:101FE0002828447C44828282070D0D09010028289C
:101FF0000010282828447C44828282070E0E0901A2
:10200000001028281010282828447C448282820747
:102010000A0A0901001E2828284E784888888E0759
:102020000D0D0901FD3C42808080808080423C088B
:102030002418070E0E09010020100800FE80808081
:10204000F880808080FE070E0E0901000810200035
:10205000FE808080F880808080FE070E0E090100DF
:1020600010284400FE808080F880808080FE070D6C
:102070000D090100282800FE808080F88080808083
:10208000FE050E0E09020040201000F8202020203E
:1020900020202020F8050E0E09020010204000F834
:1020A0002020202020202020F8050E0E09020020EC
:1020B000508800F82020202020202020F8050D0D39
:1020C000090200505000F82020202020202020F875
:1020D000070A0A09010078444242F2424242447827
:1020E000070D0D0901003458008282C2A2928A862F
:1020F000828282070E0E090100201008007C828275
:102100008282828282827C070E0E090100081020E2
:10211000007C82828282828282827C070E0E09018A
:1021200000102844007C82828282828282827C0724
:102130000D0D0901003458007C82828282828282E5
:10214000827C070D0D0901002828007C8282828292
:10215000828282827C0707070901018244281028B5
:102160004482070C0C0901FF027C868A8A9292A2A3
:10217000A2C27C80070E0E09010020100800828296
:102180008282828282824438070E0E090100081082
:10219000200082828282828282824438070E0E0967
:1021A0000100102844008282828282828282443826
:1021B000070D0D0901002828008282828282828216
:1021C000824438070E0E0901000810200082824464
:1021D00028101010101010070A0A0901008080FC56
:1021E000828282FC808080060A0A09010038444409
:1021F00048D04844444458070B0B090100201008FC
:10220000007C02027E82867A070B0B09010008100F
:1022100020007C02027E82867A070B0B09010010E7
:102220002844007C02027E82867A070A0A0901009D
:102230003458007C02027E82867A070A0A0901006D
:102240002828007C02027E82867A070C0C09010095
:1022500010282810007C02027E82867A0707070970
:1022600001006C12127E90926C070A0A0901FD7C33
:1022700082808080827C104830070B0B090100208F
:102280001008007C8282FE80827C070B0B09010013
:10229000081020007C8282FE80827C070B0B0901E3
:1022A00000102844007C8282FE80827C070A0A0992
:1022B00001002828007C8282FE80827C050C0C09AB
:1022C00002008040200000E02020202020F8050CA3
:1022D0000C0902001020400000E02020202020F8FF
:1022E000050C0C0902002050880000E0202020206E
:1022F00020F8050B0B09020050500000E0202020C0
:102300002020F8070B0B090100483050083C44829C
:1023100082824438070A0A090100345800BCC2828C
:1023200082828282070B0B090100201008007C8248
:10233000828282827C070B0B090100081020007C3E
:1023400082828282827C070B0B09010010284400E4
:102350007C82828282827C070A0A0901003458004A
:102360007C82828282827C070A0A09010028280076
:102370007C82828282827C07090909010010381060
:1023800000FE001038100709090901FF027C8A8A43
:1023900092A2A27C80070B0B090100402010008252
:1023A00082828282867A070B0B09010008102000C6
:1023B0008282828282867A070B0B090100102844F0
:1023C000008282828282867A070A0A09010028280E
:1023D000008282828282867A070E0E0901FD04083D
:1023E000100042422424241818109060070B0B0997
:1023F00001FE8080B8C4828282C4B88080070D0D3F
:102400000901FD242400424224242418181090605D
:10241000001C1CF6F90C0250055520FFFC11FB0FA7
:10242000FC000000040000020F0F0502FF80808006
:10243000808080808080800000C0C0800606060802
:102440000108CC4C48484848080B0B0901011A12F6
:10245000127F242424FE484850070F0F0901FE1064
:10246000107E9490D0701C16129292FC10100B0BE0
:10247000160D01007040908089808B00920075C01D
:102480000A201A201220222041C00B0D1A0C010034
:102490001C002200220022002400380031E0D880F5
:1024A0008C808C808700C7803CE00206060501080E
:1024B000C040404040400412120601FD30604040E0
:1024C00080808080808080808080C0406030041266
:1024D000120601FDC06020301010101010101010F6
:1024E0001010202060800707070801071094DE30D5
:1024F000FC9210070707080002101010FE101010C1
:102500000205050401FD40C04040800501010601AF
:1025100004F80203030401FFC0C08008121209007E
:10252000FD010103020604040C08081810302020E5
:102530006040C0070B0B090100384482828282820E
:1025400082844438060C0C090100107090101010A1
:102550001010101010FC060C0C0801003C44C404C0
:1025600004081010204484FC070C0C0800001C26F2
:102570006202041C02020202867C070C0C090100A4
:10258000040C0C1414244444FE04041E060B0B0912
:1025900002007C40404078840404048478070C0CDA
:1025A0000901000C30404080FCC68282824438071A
:1025B0000B0B090100FE820404080818103020608B
:1025C000070C0C09010078C4C4C4E83C4E82828226
:1025D000C27C070B0B0901003844828282C67A0252
:1025E000040870020A0A0401FF80C0800000000095
:1025F000C0C080020C0C0401FD80C08000000000FF
:1026000040C0404080070606080102061CE0C038B2
:1026100006070404080103FE0000FE070606080181
:1026200002C0700E1C7080060F0F0801FF38448432
:102630008404081010202020003030200E0F1E10BF
:1026400001FD07E01830200847C8884490449044B2
:1026500090449044904888C84770200818300FC0B4
:102660000B0C180B0000040006000E000A000B0003
:10267000110011001F802180208020C0F1E0080C93
:102680000C0A0100FC424242447E4341414143FE68
:10269000080C0C0A01001E6380808080808080C04E
:1026A000633C090C180B0100FC0043004100408012
:1026B0004080408040804080408041004200FC00DB
:1026C000080C0C090100FE424040407C484040425A
:1026D00043FE070C0C090100FE424040407C48408C
:1026E000404040F00A0C180B01000F003180400000
:1026F00080008000800083C0808080804080608077
:102700001F000A0C180C0100E1C04080408040808E
:1027100040807F8040804080408040804080E1C099
:10272000030C0C060100E040404040404040404067
:1027300040E0060F0F06FFFD3C08080808080808DF
:10274000080808080890E00A0C180B0100E780420E
:10275000004400480050006000500058004C004603
:10276000004300E1C0070C0C090100E0404040407C
:10277000404040404242FE0E0C180F0100E038601D
:1027800030707050505050589048904D1045104740
:10279000104210E27C0A0C180C0100C1C06080706D
:1027A00080508058804C80448046804380418041E6
:1027B00080E080090C180B01001E0063008100807E
:1027C0008080808080808080808080410062003CAA
:1027D00000080C0C0A0100FC42414141425C4040AF
:1027E0004040F00B0F1E0B01FD1E006300810080B6
:1027F0008080808080808080808080410062003C7A
:10280000000600032000C00A0C180B0100FC004366
:102810000041004100410042007C004C0046004362
:10282000004300E1C0070C0C0901003CC68080E0B9
:10283000380C020282C4F8090C180A0100FF8088D3
:1028400080888008000800080008000800080008C8
:102850000008003E000A0C180C0100E1C040804056
:102860008040804080408040804080408040802187
:10287000001E000C0C180C0000F0F020403040301E
:102880004010801880098009000D0007000600062E
:1028900000100C18100000F10F21842184218432D3
:1028A000C43248126814681C281C38083008100B01
:1028B0000C180C0000F9E02080318019000E000691
:1028C0000006000B001980308020C0F1E00B0C18CE
:1028D0000B0000E1E03080318019000A000E000496
:1028E0000004000400040004001F00080C0C0A018E
:1028F00000FF8286040C1810306041C1FF041212E0
:102900000601FDF0808080808080808080808080D3
:1029100080808080F00712120901FD8080C0404055
:1029200020203010101808080404060202041212B5
:102930000500FDF0101010101010101010101010E5
:1029400010101010F00709090901051018282C2C87
:10295000444682820701010901FEFE0404040600C8
:102960000AC06020100709090901003C4484043CA6
:10297000C4848C76090E1C0A00004000C000400090
:102980004000400046005900608040804080408008
:10299000410061003E000609090801003C448080B6
:1029A000808080C478080E0E0A010006020202022E
:1029B0003E428282828282463B0709090901003C2D
:1029C000448282FE8080423C060E0E0601001C24DA
:1029D000404040F840404040404040F00A0D1A0A54
:1029E00000FC3EC0430081008100C2003C0030007A
:1029F00078002780C0808080C1003E00080E0E0A4B
:102A0000010040C04040404C52624242424242E7D4
:102A1000030C0C050100C0C00040C04040404040D5
:102A200040E005101005FEFC1818000818080808FA
:102A300008080808080810E0080E0E0A010040C047
:102A40004040404F44487070584C46E7030E0E0516
:102A5000010040C04040404040404040404040E0D5
:102A60000D09120F0100CC60529063104210421009
:102A7000421042104210E7380809090A01004CD2FE
:102A8000624242424242E70809090A01003C42818F
:102A900081818182423C080D0D0A01FCCE724141C8
:102AA000414142625C404040F0090D1A0A01FC1DA0
:102AB00000630081008100810081008100470039AE
:102AC0000001000100010007800609090801005CFF
:102AD000E4604040404040F005090907010070886B
:102AE00080C030088888F0050C0C07010040404089
:102AF000F840404040404048700809090A0100C6BB
:102B0000424242424242463B090912090000F38018
:102B1000610021003200120012001C000C000800AD
:102B20000D09120D0000F23863102310251035A096
:102B300014A018E018C018400909120A0000F38018
:102B4000210032001C000C00160022002100F3803E
:102B5000090D1A0900FCF380610021003200120007
:102B600014001C000C00080008001000B000E00079
:102B7000070909080100FE840818302062C2FE051A
:102B800012120601FD081020202020202040E02005
:102B9000202020202020180114140402FC808080B2
:102BA0008080808080808080808080808080808025
:102BB000800512120600FDC0202020202020203891
:102BC0001020202020202040800904080900043023
:102BD000007D804F008600FFFFFFFFFFFFFFFFFF2C
:102BE000FFFFFFFFFFFFFFFFFFFFFFFFFFFFFFFFF5
:102BF000FFFFFFFFFFFFFFFF000000040000020EC9
:102C00000E0502FB40C040808080808080808080F4
:102C10008080070C0C09010010103ED49090909019
:102C2000D27C1010070C0C0901003C464440404087
:102C3000F040404242FE070606090103847E4444F8
:102C400044FE090B16090000E780630032001400FF
:102C50001C0008007F000800080008003E00011466
:102C6000140402FC8080808080808080800000804E
:102C70008080808080808080070D0D090100709821
:102C800080E0B88682623C0C84C4780502020701A9
:102C90000A88880C0C180E01000F0030C05E2092CC
:102CA00020A010A010A010A01090A04F2020401F26
:102CB0008005070705000530D070D0B048F0070840
:102CC0000809010022244CD8D84C24220804040905
:102CD0000002FF010101050101060104F8070606D3
:102CE00007000738EEAAB2EE3806010109020BFC14
:102CF000050505070107708888887007090908001D
:102D000001101010FE101010007E040707060106C7
:102D1000709010204090F00508080600053848081B
:102D2000100808887004040406020A306040800815
:102D30000D0D0A01FCC24642424242667E5B4040A3
:102D40004060080E0E0A01FE3F46868686463E0615
:102D500006060606060F0102020301058080020432
:102D6000040402FCC0C0408005070706010620E0FD
:102D700020202020F804070705000560909090901F
:102D800060F0070808090100884824323224488886
:102D90000A0B160B0100C0804100410042004400B4
:102DA000E40009801280128027C041C0090B160B75
:102DB0000100C0804100420042004400EF800C80CE
:102DC00011003100228047800A0C180B01006000BE
:102DD0009080210012009200E40008000980128017
:102DE000328027C041C0060E0E0801FB10301010C3
:102DF000101020204080848488700B10200B00006D
:102E000010003C0002000000040006000E000A0052
:102E10000B00110011001F802180208020C0F1E0F4
:102E20000B10200B000001000780080000000400C8
:102E300006000E000A000B00110011001F80218007
:102E4000208020C0F1E00B10200B000004000A00DD
:102E500011000000040006000E000A000B00110023
:102E600011001F802180208020C0F1E00B0F1E0B7D
:102E700000001D8027000000040006000E000A006C
:102E80000B00110011001F802180208020C0F1E084
:102E90000B0F1E0B000021002100000004000600A3
:102EA0000E000A000B00110011001F8021802080FD
:102EB00020C0F1E00B11220B00000E0012001200E6
:102EC0000C000000040006000E000A000B001100B8
:102ED00011001F802180208020C0F1E00E0C180F0F
:102EE00000001FF805080500090009001FF0112067
:102EF000110021002108610CF3F80910200A01FCDF
:102F00001E00630080008000800080008000800040
:102F10008000410061803E0008000C0004000800B1
:102F200008101009010040300800FE424040407C7B
:102F30004840404243FE081010090100040E3000D2
:102F4000FE424040407C4840404243FE0810100989
:102F50000100182C4402FE424040407C4840404260
:102F600043FE080F0F090100848400FE42404040E8
:102F70007C4840404243FE04101006000080601070
:102F800000702020202020202020202070051010FC
:102F90000601001830C000E0404040404040404042
:102FA0004040E006101006000030588400702020D9
:102FB000202020202020202070060F0F06000084F3
:102FC00088007020202020202020202020700A0C43
:102FD000180B00007E0021802080204020407C4093
:102FE000A04020402040208021007E000A0F1E0CBF
:102FF0000100190026000000C1C060807080508070
:1030000058804C8044804680438041804180E080ED
:103010000910200B010020001800040000001E0011
:1030200063008100808080808080808080808080BC
:10303000410062003C000910200B01000300060063
:10304000180000001E006300810080808080808066
:10305000808080808080410062003C000910200B4D
:1030600001000C001600220001001E006300810018
:1030700080808080808080808080808041006200AD
:103080003C00090F1E0B010019006E0000001E001D
:10309000630081008080808080808080808080804C
:1030A000410062003C00090F1E0B0100420042007B
:1030B00000001E006300810080808080808080800E
:1030C00080808080410062003C0006060608010204
:1030D000844830304884090C180B01001E802300FE
:1030E000430083808480888088809080E100610034
:1030F0006200BC000A10200C01003000180006001D
:103100000000E1C04080408040804080408040809E
:1031100040804080408021001E000A10200C0100E9
:103120000100060008000000E1C0408040804080AF
:1031300040804080408040804080408021001E00D0
:103140000A10200C01000C001A0021000000E1C050
:10315000408040804080408040804080408040806F
:10316000408021001E000A0F1E0C010021002100DA
:103170000000E1C04080408040804080408040802E
:1031800040804080408021001E000B10200B00007A
:10319000010003800C000000E1E030803180190064
:1031A0000A000E00040004000400040004001F00D4
:1031B000080C0C0A0100F0407C4241414141625C34
:1031C00040F0090E1C0B01001E00230041004100CD
:1031D0004100460048004800460043804080488047
:1031E0004880CF00070E0E09010060201010083C37
:1031F0004484043CC4848C76070E0E0901000C083C
:103200001010003C4484043CC4848C76070E0E09E4
:10321000010010384C84003C4484043CC4848C7607
:10322000070D0D090100227498003C4484043CC43D
:10323000848C76070C0C0901008484003C448404CF
:103240003CC4848C76070E0E0901003848483000D3
:103250003C4484043CC4848C760B09120D01003973
:10326000C04640C42004201FE0640084008E207308
:10327000C0070D0D0801FC3C448080808080623CCA
:1032800010180810070E0E09010060201008003CFD
:10329000448282FE8080423C070E0E090100040E2B
:1032A0000810003C448282FE8080423C070E0E09DA
:1032B000010018382442003C448282FE8080423C57
:1032C000070C0C0901008284003C448282FE80804D
:1032D000423C040E0E050000C0402010002060207B
:1032E000202020202070040E0E05010010306040C8
:1032F0000040C0404040404040E0060E0E05000047
:103300002070C88400206020202020202070060C1F
:103310000C05FF00848400103010101010101038BD
:10332000070D0D090100601E38443C4682828282EE
:10333000844438080D0D0A0100333A4C004CD26227
:103340004242424242E7080E0E0A01006030100875
:10335000003C428181818182423C080E0E0A0100BC
:10336000060C0810003C428181818182423C080E9B
:103370000E0A010018382442003C4281818181827A
:10338000423C080D0D0A0100327A4C003C4281811A
:10339000818182423C080C0C0A01008282003C427E
:1033A0008181818182423C0606060801022020FCC0
:1033B0000020200809090A01001D6687899991E209
:1033C00062FC080E0E0A01006030100800C642427E
:1033D00042424242463B080E0E0A0100060C08100B
:1033E00000C6424242424242463B080E0E0A0100DB
:1033F000181C244200C6424242424242463B080C4C
:103400000C0A0100828200C6424242424242463BCE
:103410000912240900FC0300060004000800000053
:10342000F380610021003200120014001C000C0027
:10343000080008001000B000E0000812120A01FCA9
:1034400040C04040404E724141414142627C404058
:1034500040F00910200900FC410041000000F38009
:10346000610021003200120014001C000C00080052
:1034700008001000B000E0000000000000000000A4
:10348000000000007FFFE0000000000000000000DE
:103490000000007000E000000000000000000000DC
:1034A0000000630C6000000000000000000000004D
:1034B00000470E2000000000000000000000000097
:1034C0004F0F200000000000000000000000005F1F
:1034D0000FA00000000000000000000000005E07D8
:1034E000A07F800000000000000041040040602038
:1034F000FFC00000000000000020820040F020FF1C
:10350000C00000000000000020820040F020FFC04A
:10351000000000000000004104004060207F8000A7
:103520000000000000008208005E07A07F8000000D
:1035300000000000010410005F0FA0FFC0000000A9
:10354000000000010410004F0F20FFC00000000029
:10355000000000820800470E20FFC00000000000AD
:103560000000410400630C603F0000000000000008
:10357000000000007000E01E0000000000000001DC
:10358000FFFF807FFFE00C0000000000000001FF53
:10359000FF800000000000000000000000000000AC
:1035A000007FFFE0000000000000000000000000BD
:1035B0007000E0000000000000000000000000615A
:1035C000F86000000000000000000000000041F86A
:1035D0002000000000000000000000000040F0207B
:1035E000000000000000000000000000406020001B
:1035F00000000000000000000000005801A07F80D3
:10360000000000000000004104005C63A0FFC00057
:103610000000000000002082005EF7A0FFC0000054
:1036200000000000002082005EF7A0FFC000000044
:10363000000000004104005C63A07F8000000000E7
:103640000000008208005801A07F800000000000F8
:103650000001041000406020FFC0000000000000D6
:103660000104100040F020FFC00000000000000036
:1036700082080041F820FFC0000000000000004167
:10368000040061F8603F000000000000000000003E
:10369000007000E01E0000000000000001FFFF803D
:1036A0007FFFE00C0000000000000001FFFF800031
:1036B000000059002D2D3A2D2D00B02000B0200023
:1036C0004D323100496E6963696172207461726ABA
:1036D0002E205344004E6F20686179207461726A15
:1036E000657461205344004D32310052656361724C
:1036F000676172207461726A2E20534400546172B3
:103700006A65746120534400446574656E65722077
:10371000696D70726573696F6E005265616E756474
:10372000617220696D707265732E005061757361EE
:103730007220696D70726573696F6E00436F6E748D
:10374000726F6C00507265706172617200416A75CF
:1037500073746172004D6F6E69746F72697A617211
:10376000005461726A657461205344005461726A46
:1037700065746120534400F92E2E004D656E75204E
:103780007072696E636970616C004D3234004D3245
:1037900033202573004D383420582059205A2045B5
:1037A00000416A7573746172205A2D6F6666736585
:1037B00074004C6C6576617220616C206F72696771
:1037C000656E004D6F762E206D616E75616C2065A3
:1037D0006A65730054656D702E457874722E0054BE
:1037E000656D702E457874722E004D656E75207073
:1037F00072696E636970616C0047756172646172B1
:103800002076616C6F72005A2D6F66667365740066
:103810005A2D6F666673657400436F6E74726F6CB9
:1038200000473238205A00486F6D696E67205A0091
:10383000473238205900486F6D696E67205900473C
:103840003238205800486F6D696E67205800473243
:103850003800486F6D696E6720582C592C5A0050FB
:1038600072657061726172004D6F76657220302EE4
:10387000316D6D004D6F76657220316D6D004D6F4D
:103880007665722031306D6D00436F6E74726F6CAF
:10389000004578747275736F72004D6F7665722093
:1038A0005A004D6F7665722059004D6F7665722013
:1038B00058004D6F762E206D616E75616C20656AC3
:1038C0006573004578747275736F72005A00590001
:1038D00058004D383400417061676172206D6F741B
:1038E0006F72657300496E736572746172206669E8
:1038F0006C616D2E00526574697261722066696C2C
:10390000616D2E00456E667269617200507265636A
:10391000616C656E746172004D656E7520707269C0
:103920006E636970616C0047393220453000473161
:1039300020452B3530204631323030004739322097
:1039400045300047393220453000473120452D3180
:103950003030204631323030004739322045300097
:103960005056412044494D410046696C2E206D61FE
:10397000646572612044494D410046696C2E2066A1
:103980006C657869626C652044494D4100504C413A
:103990002044494D41005072657061726172004669
:1039A0006C756A6F00466C756A6F0056656C6F6364
:1039B000696461640056656C6F6369646164004D9D
:1039C000656E75207072696E636970616C00546118
:1039D000726A65746120534420726574697261640F
:1039E00061005461726A65746120534420696E7489
:1039F000726F64756369646100001F00000000005D
:103A00000000003FFFFA0000001F0000000000005F
:103A100000003FFFFFF000001F000000000000005A
:103A2000003FFFFDFF00000F8000000000000000CD
:103A30003FFFFFFFC0000F80000000000000003FBC
:103A4000FFFFFF20000F87E00000000000003FFFA5
:103A5000FEFF201FFFC3E0FFFFE03FFFE01F00FE6F
:103A6000FFB03FFFC3E0FFFFF03FFFF01F007FC745
:103A7000907FFFC3F07FFFF81FFFF800007F40102A
:103A80007FFFE1F07FFFFC1FFFFC001FFF6018FFBE
:103A9000FFE1F07C7CFC0000FC001FFFE708FE0358
:103AA000E0003E3E7E00007C000FFFE7C8FC01F016
:103AB000003E3E3E00007E000FFFA7C87C01F0F8EC
:103AC0003E3E3E03FFFE000FFFF3EC7C01F0FC3FA7
:103AD0001F3F07FFFE000FFFF3E47C00F07C1F1F79
:103AE0001F07FFFF00001FD3E43E00F87C1F1F1FCD
:103AF0000FFFFF00001FD9E63E00F87C1F9F9F8F3D
:103B0000E01F03E00FF9F21F00783E0F8F8F87C090
:103B10001F83F00FE9F21F807C3E0F8F8F87E00F2D
:103B200081FFFFEDF30FFFFC3F0FCFCFC7FFFF81FA
:103B3000FFFFFC3907FFFC3F07C7C7C3FFFFC1FFFB
:103B4000FFF40103FFFE1F07C7C7C1FFFFC0FFFF50
:103B5000FC0101FFFE1F07E7C7E07FFFC07FFFEC0E
:103B600001007FFE1F83E3E7E01FFFE01FFFD80196
:103B7000000000000000000000000001FFCF010075
:103B800000000000000000000000001FFCF6000024
:103B9000000000000000000000000000004D333075
:103BA0003020533639382050323030004D333030E9
:103BB000205336353920503230300000060900FEDF
:103BC00006018902FE20FFFE07FE06FE0000000639
:103BD0000007010606060200808080800080030343
:103BE00003060103A0A0A00507070600FF5050F838
:103BF00050F850500509090600FE2070A8A0702852
:103C0000A870200608080600FF40A8481020485465
:103C1000080507070600FF60909060989068010310
:103C2000030602038080800207070602FF408080AF
:103C3000808080400207070602FF804040404040ED
:103C4000800505050600008850F850880505050622
:103C500000002020F820200204040602FEC040409C
:103C600080050101060002F8020202060200C0C03F
:103C70000406060601001010204080800406060697
:103C8000010060909090906003060606010040C01D
:103C9000404040E00406060601006090102040F01D
:103CA000040606060100F020601010E00506060676
:103CB000000010305090F810040606060100F08055
:103CC000E01010E00406060601006080E0909060BD
:103CD000040606060100F010102040400406060607
:103CE00001006090609090600406060601006090FC
:103CF00090701060020505060200C0C000C0C0023E
:103D000007070602FEC0C000C0404080050505064A
:103D100000001860806018050303060001F800F831
:103D2000050505060000C0300830C004070706017D
:103D3000006090106040004005060606000070908C
:103D4000A8B08070050606060000205088F8888814
:103D5000050606060000F088F08888F004060606CE
:103D60000100609080809060040606060100E090EB
:103D7000909090E0040606060100F080E08080F05C
:103D8000040606060100F080E08080800406060636
:103D90000100609080B090600406060601009090DB
:103DA000F0909090030606060100E040404040E09D
:103DB000050606060000381010109060040606067E
:103DC000010090A0C0A0909004060606010080802B
:103DD000808080F005060606000088D8A8A888889C
:103DE00004060606010090D0B090909005060606E5
:103DF0000000708888888870040606060100E0903C
:103E000090E080800407070601FF609090D0B060CA
:103E100010040606060100E09090E090900406066B
:103E2000060100609040209060050606060000F83C
:103E300020202020200406060601009090909090FB
:103E400060040606060100909090F060600506068A
:103E50000600008888A8A8D88805060606000088FD
:103E60005020205088050606060000888850202033
:103E700020040606060100F010204080F00306062C
:103E8000060100E080808080E004060606010080D4
:103E90008040201010030606060100E020202020AC
:103EA000E00503030600032050880501010600FE1B
:103EB000F8020202060204804004040406010070B5
:103EC0009090700406060601008080E09090E00467
:103ED00004040601007080807004060606010010CC
:103EE000107090907004040406010060B0C070046B
:103EF0000606060100205040E04040040606060188
:103F0000FE6090907010600406060601008080E05C
:103F10009090900306060601004000C04040E00378
:103F200008080601FE200060202020A040040606AC
:103F30000601008080A0C0A090030606060100C014
:103F400040404040E0050404060000D0A8A88804D2
:103F50000404060100E0909090040404060100604F
:103F60009090600406060601FEE09090E0808004D8
:103F700006060601FE7090907010100404040601FD
:103F800000A0D0808004040406010070C030E0046A
:103F900006060601004040E04050200404040601EB
:103FA00000909090700404040601009090606005F9
:103FB000040406000088A8A8500404040601009028
:103FC0006060900406060601FE9090907090600478
:103FD0000404060100F02040F0030707060100205A
:103FE0004040804040200107070602FF808080801B
:103FF0008080800307070601008040402040408009
:1040000004020206010350A0FFFFFFFFFFFFFFFFB6
:10401000FFFFFFFFFFFFFFFFFFFFFFFFFFFFFFFFB0
:10402000FFFFFFFFFFFFFFFFFF000000060007018B
:1040300006060602008000808080800406060601D5
:10404000FF2070A0A070200507070600FF30484041
:10405000F04040F8050505060000A8508850A80566
:1040600006060600008850F820F82001070706021F
:10407000FF808080008080800407070601FF708039
:1040800060906010E0030101060105A00607070625
:104090000000788494A494847803050506010160E7
:1040A000A06000E00505050600002850A050280487
:1040B0000303060100F01010040101060102F006DE
:1040C00007070600007884B4A4A4847804010106DC
:1040D0000105F0040303060102609060050707066E
:1040E00000FF2020F8202000F8030505060101400C
:1040F000A02040E0030505060101C0204020C002C9
:10410000020206020440800405050601FF9090B0FB
:10411000D08005060606000078E8E8682828010136
:1041200001060202800202020602FE40800305052B
:1041300006010140C04040E003050506010140A022
:104140004000E0050505060000A0502850A0050825
:10415000080600FF40C0405070307810050808067F
:1041600000FF40C04050680810380508080600FFEE
:10417000C0204030F030781004070706010020000E
:1041800020608090600507070600004020205070E6
:1041900088880507070600001020205070888805D1
:1041A0000707060000205020507088880507070682
:1041B000000028502050708888050707060000502E
:1041C0000020507088880507070600002050205006
:1041D00070888805060606000078A0F0A0A0B80444
:1041E00008080601FE609080809060204004070768
:1041F0000601004020F080E080F00407070601007F
:104200002040F080E080F00407070601002050F015
:1042100080E080F00407070601005000F080E08095
:10422000F00307070601008040E0404040E003073C
:10423000070601002040E0404040E0030707060178
:104240000040A0E0404040E0030707060100A00056
:10425000E0404040E00506060600007048E8484897
:104260007004070706010050A090D0B0909004079A
:104270000706010040206090909060040707060147
:1042800000204060909090600407070601002050D5
:10429000609090906004070706010050A060909025
:1042A0009060040707060100500060909090600540
:1042B000050506000088502050880408080601FF04
:1042C0001070B0B0D0D0E080040707060100402095
:1042D0009090909060040707060100204090909015
:1042E00090600407070601002050909090906004B1
:1042F00007070601005000909090906005070706A0
:1043000000001020885020202004060606010080AE
:10431000E09090E0800406060601006090A0A09066
:10432000A004070706010040200070909070040769
:1043300007060100204000709090700407070601F6
:10434000002050007090907004070706010050A0F4
:104350000070909070040606060100500070909066
:10436000700407070601002050207090907005042B
:104370000406000070A8B0780406060601FE7080EE
:104380008070204004070706010040200060B0C094
:104390007004070706010020400060B0C0700407E9
:1043A0000706010020500060B0C070040606060138
:1043B00000500060B0C07003070706010080400095
:1043C000C04040E0030707060100204000C0404015
:1043D000E003070706010040A000C04040E00306DC
:1043E00006060100A000C04040E0040707060100E7
:1043F0003060107090906004070706010050A00024
:10440000E090909004070706010040200060909023
:1044100060040707060100204000609090600407D8
:104420000706010020500060909060040707060115
:104430000050A00060909060040606060100500045
:10444000609090600505050600002000F80020043B
:10445000040406010070B0D0E00407070601004024
:104460002000909090700407070601002040009003
:104470009090700407070601002050009090907003
:104480000406060601005000909090700409090689
:1044900001FE204000909090709060040808060192
:1044A000FE8080E09090E080800408080601FE50C5
:1044B0000090909070906000060900FE070199033B
:1044C0002B20FFFE08FE07FE00000006000001078B
:1044D00007060200808080808000800303030601BD
:1044E00004A0A0A00507070600005050F850F8509F
:1044F000500507070600002070A0702870200507EF
:104500000706000048A8502050A89005070706009D
:104510000040A0A040A89068010303060204808028
:1045200080030707060100204080808040200307A9
:104530000706010080402020204080050505060078
:10454000018850F850880505050600012020F82054
:10455000200303030601FF604080050101060003FC
:10456000F80303030601FF40E040050707060000CB
:1045700008081020408080050707060000205088AA
:10458000888850200507070600002060A020202012
:10459000F8050707060000708808304080F8050716
:1045A00007060000F80810300888700507070600A5
:1045B0000010305090F81010050707060000F88032
:1045C000B0C8088870050707060000304080B0C8F2
:1045D0008870050707060000F80810102040400505
:1045E000070706000070888870888870050707062E
:1045F0000000708898680810600307070601FF40F4
:10460000E0400040E0400307070601FF40E04000B3
:104610006040800407070601001020408040201001
:10462000050303060002F800F804070706010080EE
:1046300040201020408005070706000070881020E9
:10464000200020050707060000708898A8B0807039
:1046500005070706000020508888F88888050707A6
:10466000060000F04848704848F0050707060000BB
:1046700070888080808870050707060000F0484831
:10468000484848F0050707060000F88080F0808061
:10469000F8050707060000F88080F0808080050795
:1046A000070600007088808098887005070706005C
:1046B00000888888F8888888030707060100E0409A
:1046C00040404040E0050707060000381010101079
:1046D00090600507070600008890A0C0A09088059C
:1046E0000707060000808080808080F805070706A5
:1046F00000008888D8A888888805070706000088F1
:1047000088C8A898888805070706000070888888E8
:10471000888870050707060000F08888F080808090
:104720000508080600FF7088888888A870080507B3
:1047300007060000F08888F0A090880507070600AB
:104740000070888070088870050707060000F82050
:1047500020202020200507070600008888888888F8
:10476000887005070706000088888850505020058B
:104770000707060000888888A8A8D88805070706C4
:1047800000008888502050888805070706000088A8
:10479000885020202020050707060000F808102078
:1047A0004080F8030707060100E08080808080E0F9
:1047B000050707060000808040201008080307074F
:1047C000060100E02020202020E00503030600046D
:1047D0002050880501010600FFF8020202060206C9
:1047E00080400505050600007008788878050707F1
:1047F0000600008080B0C888C8B005050506000026
:104800007088808870050707060000080868988887
:1048100098680505050600007088F8807005070790
:10482000060000304840F04040400507070600FE03
:10483000788888780888700507070600008080B0AF
:10484000C88888880307070601004000C040404030
:10485000E00409090601FE1000301010109090606D
:1048600005070706000080808890E090880307070E
:10487000060100C04040404040E00505050600003C
:10488000D0A8A8A888050505060000B0C8888888B3
:104890000505050600007088888870050707060072
:1048A000FEB0C888C8B080800507070600FE68987B
:1048B0008898680808050505060000B0C880808053
:1048C00005050506000070807008F0050707060062
:1048D000004040F04040483005050506000088884B
:1048E0008898680505050600008888505020050551
:1048F000050600008888A8A8500505050600008860
:10490000502050880507070600FE888898680888A8
:1049100070050505060000F8102040F8040707069A
:104920000100304020C0204030010707060200800F
:10493000808080808080040707060100C02040300E
:104940004020C005030306000448A89000000001B1
:104950000000000000010000000000010000000055
:104960000001000000000001000000000001000044
:104970000000000100000000000100000000000134
:104980000000000000010000000000010000000025
:104990000001000000000001000000000001000014
:1049A0000000000100000000000100000000000104
:1049B00000000000000100000000000100000000F5
:1049C00000010000000000010000000000010000E4
:1049D00000000001000000000001000000000001D4
:1049E00000000000000100000000000100000000C5
:1049F00000010000000000010000000000010000B4
:104A000000000001000000000001000000000001A3
:104A100000000000000600000107070602008000F9
:104A200080808080800507070600FF2078A0A0A076
:104A30007820050707060000304840E04048B005F0
:104A4000050506000088705070880508080600FFFC
:104A500088885020F8202020010707060200808067
:104A600080008080800508080600FF7080E0904884
:104A7000380870030101060107A0050707060000BA
:104A80007088A8C8A888700406060601017090B056
:104A90005000F00605050600002448904824040252
:104AA00002060102F010040101060103F0050707E8
:104AB0000600007088E8C8C8887005010106000774
:104AC000F803030306010440A040050606060000A3
:104AD0002020F82020F804050506010360902040FE
:104AE000F0040505060103E0106010E00202020672
:104AF000020640800506060600FF888888C8B08048
:104B000005070706000078E8E86828282801010161
:104B1000060203800202020602FE4080030505062B
:104B2000010340C04040E004060606010160909089
:104B30006000F0060505060000904824489006092C
:104B4000090600FF40C04040E40C143C040609097B
:104B50000600FF40C04040E81404081C050909068F
:104B600000FFC0204020C818287808050707060065
:104B70000020002020408870050808060000402022
:104B8000708888F88888050808060000102070885A
:104B900088F888880508080600002050708888F882
:104BA000888805080806000048B0708888F888885A
:104BB0000508080600005000708888F888880508F5
:104BC000080600002050708888F8888806070706C5
:104BD00000003C50909CF0909C0509090600FE7076
:104BE000888080808870204005080806000040F812
:104BF0008080F08080F805080806000010F88080AA
:104C0000F08080F805080806000020F88080F08019
:104C100080F805080806000050F88080F08080F8D1
:104C20000308080601008040E040404040E00308DF
:104C3000080601002040E040404040E0030808062C
:104C4000010040A0E040404040E0030808060100A9
:104C5000A000E040404040E0050707060000F048A3
:104C600048E84848F0050808060000285088C8A809
:104C70009888880508080600004020708888888881
:104C80007005080806000010207088888888700564
:104C90000808060000205070888888887005080879
:104CA000060000285070888888887005080806006B
:104CB0000050007088888888700505050600008807
:104CC00050205088050707060000709898A8C8C8AB
:104CD00070050808060000402088888888887005CC
:104CE0000808060000102088888888887005080851
:104CF0000600002050008888888870050808060093
:104D00000050008888888888700508080600001010
:104D10002088885020202005070706000080F088A2
:104D2000F0808080050707060000708890A09088BA
:104D3000B005080806000040200070087888780553
:104D40000808060000102000700878887805080818
:104D500006000020500070087888780508080600D2
:104D60000028500070087888780507070600005072
:104D70000070087888780508080600002050207028
:104D80000878887806050506000078147C907C0574
:104D900007070600FE708880887020400508080616
:104DA00000004020007088F88070050808060000A8
:104DB0001020007088F88070050808060000205058
:104DC000007088F8807005070706000050007088A2
:104DD000F88070030808060100804000C040404091
:104DE000E0030808060100408000C0404040E003A6
:104DF000080806010040A000C0404040E0060A0A42
:104E00000600FEA4A800FC8480808084FC060A0AB8
:104E10000600FE549400FC8404040484FC05080885
:104E2000060000285000B0C88888880508080600D9
:104E3000004020007088888870040A0A0602FE304C
:104E4000408090909090909090040A0A0600FEC0D6
:104E500020109090909090909006070706000144D3
:104E60008C8C8480403C06070706000188C4C484FB
:104E70000408F00505050600012000F800200508DB
:104E80000806000040F0C8888898781005080806D1
:104E90000000E0F88888888888F805050506000184
:104EA0002030F830200508080600002070F8202087
:104EB0002020E00509090600FF2070A8A8B888880E
:104EC00050200509090600FFE080C0B0A8A83028DE
:104ED000280509090600FFF8A88888888888A8F8A6
:104EE000050A0A0600FE205050505088A8A8887075
:104EF0000A0020000A00207A3A200020793A200097
:104F000020783A20000200002100240027002A0017
:104F10002D003000330001010000040107010A01E7
:104F200000002200250028002B002E003100340054
:104F300002010000050108010B0100002000230010
:104F4000260029002C002F00320000010000030180
:104F500006010901050505050705080808080202FC
:104F600002020A0A08080404040401010101010103
:104F700001010303030303030303040707070C0CE6
:104F80000C0C0C0C0C0C02020202060606060606AD
:104F900006060B0B0B0B0B0B0B0B01021020200852
:104FA0000810204010204080020102010804020184
:104FB00001020408102040808040201008040201F3
:104FC000800402018040201008040201080402014C
:104FD00001020408102040800102040810204080D3
:104FE0000000090A02080B0C0D070603040100006B
:104FF00000000000000000000000000000000000B1
:1050000000000000000000000000000011100F0070
:105010000000000000000000000000000000000090
:10502000000000000000494E46494E4954594E4187
:105030004ECDCCCC3D0AD7233C17B7D13877CC2BFB
:10504000329595E6241FB14F0A000020410000C8A8
:105050004200401C4620BCBE4CCA1B0E5AAEC59D29
:1050600074001B45BC7D85EE144511241FBECFEF97
:10507000D1E2DEBFCDBF00E00CBF14E0A0E0B2E0A3
:10508000E0EFF0E102E00BBF02C007900D92AC3FF1
:10509000B107D9F71BBE14E1ACEFB4E001C01D921B
:1050A000A23EB107E1F710E5C8E6D0E504C02297BB
:1050B000FE010F941D08C236D107C9F70E94C7FB35
:1050C0000D946B080C940000CF93DF93BC018230E9
:1050D000910510F462E070E0A091DE14B091DF144D
:1050E000ED01E0E0F0E040E050E021C088819981EE
:1050F0008617970769F48A819B81309719F093830B
:10510000828304C09093DF148093DE14FE0134C0C8
:105110006817790738F44115510519F08417950778
:1051200008F4AC01FE018A819B819C01E901209772
:10513000E9F641155105A9F1CA01861B970B0497A1
:1051400008F4BA01E0E0F0E02AC08D919C9111973B
:1051500084179507F9F46417750781F412968D91F9
:105160009C911397309719F09383828304C0909396
:10517000DF148093DE14FD0132964CC0CA01861BF9
:10518000970BFD01E80FF91F6193719302978D93BF
:105190009C9340C0FD01828193819C01D9011097AD
:1051A000A1F68091DC149091DD14892B41F480915B
:1051B000C5039091C6039093DD148093DC14409155
:1051C000C7035091C8034115510541F44DB75EB76F
:1051D0008091C3039091C403481B590B2091DC14A8
:1051E0003091DD14CA01821B930B8617970780F05C
:1051F000AB014E5F5F4F8417950750F0420F531F6E
:105200005093DD144093DC14F9016193719302C053
:10521000E0E0F0E0CF01DF91CF910895CF93DF93ED
:10522000009709F450C0EC0122971B821A82A091CA
:10523000DE14B091DF14109709F140E050E0AC1794
:10524000BD0708F1BB83AA83FE0121913191E20FD2
:10525000F31FAE17BF0779F48D919C911197280F1A
:10526000391F2E5F3F4F3983288312968D919C9171
:1052700013979B838A834115510571F4D093DF14F2
:10528000C093DE1420C012968D919C911397AD01AE
:10529000009711F0DC01D3CFFA01D383C2832191AF
:1052A0003191E20FF31FCE17DF0769F488819981EE
:1052B000280F391F2E5F3F4FFA01318320838A81E7
:1052C0009B8193838283DF91CF910895A0E0B0E02A
:1052D000ECE6F9E20D943A08EC015B016115710509
:1052E00019F0FB0191838083F9908F2D90E00F944A
:1052F0002108892BC9F7FDE2FF1621F4F990EE246D
:10530000E39405C02BE2F21609F4F990EE248E0125
:1053100001501040C80166E270E543E050E00E9491
:10532000052C892B01F58E010E5F1F4FC80169E224
:1053300070E545E050E00E94052C892B19F48E01A0
:10534000095F1F4FA114B10419F0F5011183008307
:10535000E0FC04C070E090E080E814C070E090E0F1
:1053600080E86FEF08C1C8016EE270E543E050E0ED
:105370000E94052C892B69F4A114B10429F470E072
:1053800090E080EC6FE7F7C02296F501D183C083EF
:10539000F6CF8824992440E050E060E070E0EF2DE3
:1053A000E053EA30A0F5F2E0EF2A8E2D90E09C0168
:1053B00028703070E2FE06C0232B79F50894811C1A
:1053C000911C2BC0232B19F0089481089108DB0154
:1053D000CA0112E0880F991FAA1FBB1F1A95D1F7A7
:1053E000480F591F6A1F7B1F440F551F661F771FE9
:1053F0004E0F511D611D711D483929E9520729E9D8
:10540000620729E1720748F084E0E82A06C0EE3F0F
:1054100031F4E3FC39C098E0E92AF990C0CFE533D4
:1054200011F0E53189F529912D3219F4E0E1EE2AE8
:1054300005C02B3219F081E090E003C0299182E091
:1054400090E0E22FE053EA3018F0C81BD90B1CC0E3
:1054500020E030E0FCE020383F075CF4C901880F11
:10546000991F880F991F280F391F220F331F2E0FE6
:10547000311DE991E053EA3068F3E4FE03C0309552
:1054800021953F4F820E931ECE2CDD24E1FE07C0F6
:10549000A114B10421F02197F501D183C083CB0180
:1054A000BA010F9486047B018C01F3E0CF22DD2446
:1054B00023E0C216D10421F417FB109517F91095BB
:1054C00057016801C801B70120E030E040E050E03A
:1054D0000F94E603882309F44AC097FE0DC025E423
:1054E000E22E20E5F22E9094819491089394C0E2EC
:1054F000D0E000E010E012C09DE5E92E90E5F92E25
:10550000F6CFF7012591359145915491C601B5012A
:105510000F94C6065B016C018C1A9D0A8C169D06C1
:1055200084F7D595C7950F5F1F4F0630110529F0F9
:105530008CEF9FEFE80EF91EF1CFC501D6017C017B
:105540008D018C2D880F8D2D881F8F3F51F0C60146
:10555000B50120E030E040E050E00F94E6038823FE
:1055600031F482E290E09093E1148093E0147E2D78
:105570009F2D802F612F272F392F482F562FB901AC
:10558000CA01CDB7DEB7ECE00D9456082F923F92DA
:105590005F926F927F928F929F92AF92BF92CF92C3
:1055A000DF92EF92FF920F931F93CF93DF938C01C3
:1055B0001B01EA016115710519F0FB0191838083DC
:1055C000209749F0CE010297839728F020E030E041
:1055D00040E050E0F6C0F801A1908F018A2D90E0E4
:1055E0000F942108892BB9F7FDE2AF1631F4F801C9
:1055F000A1908F015524539407C0FBE2AF1619F414
:10560000F801A1908F015524209719F0C031D105E0
:10561000C1F4F0E3AF1679F4F8018081883711F016
:10562000883549F4F801A1800E5F1F4FF2E05F2A30
:10563000C0E1D0E006C0209721F480E3A816E9F489
:1056400027C0C830D10531F1C930D10524F4C230AA
:10565000D10531F50CC0CA30D10589F0C031D10572
:10566000F9F4C12CD12CE12CB8E0FB2E28C0C12CC0
:10567000D12CE12CA0E4FA2E22C0CAE0D0E0FCEC50
:10568000CF2EFCECDF2EFCECEF2EFCE0FF2E17C043
:10569000C8E0D0E0C12CD12CE12CE0E1FE2E0FC0FF
:1056A0009E01442737FD4095542F60E070E080E074
:1056B00090E80F94DE07C901DA016C017D0120E05A
:1056C00030E040E050E060E03E01882477FC8094C8
:1056D000982C70EDB72EBA0CE9E0EB1570F48A2D1A
:1056E00081548A3118F499ECB92E06C08A2D81565E
:1056F0008A3150F589EAB82EBA0C8B2D90E08C17C0
:105700009D0714F56F3FE1F0C216D306E406F506D7
:10571000B0F0CA01B901A40193010F9498079B014D
:10572000AC012B0D311D411D511D2130F0E03F0713
:10573000F0E04F07F0E85F0710F461E001C06FEFA1
:10574000F801A1908F01C5CF2114310481F06623A7
:1057500031F001501040F1011183008308C051FE67
:105760001AC002501040F1011183008314C067FF7A
:1057700012C050FC05C02FEF3FEF4FEF5FE704C0B2
:1057800020E030E040E050E882E290E09093E114C5
:105790008093E01416C050FE08C050954095309597
:1057A00021953F4F4F4F5F4F0CC057FF0AC082E219
:1057B00090E09093E1148093E0142FEF3FEF4FEFD0
:1057C0005FE7B901CA01DF91CF911F910F91FF905F
:1057D000EF90DF90CF90BF90AF909F908F907F9091
:1057E0006F905F903F902F900895FB01DC01059032
:1057F0000D920020E1F70895FC0105900020E9F7E3
:10580000809590958E0F9F1F0895FB01DC014150FC
:10581000504088F08D9181341CF08B350CF4805E03
:10582000659161341CF06B350CF4605E861B611170
:1058300071F3990B0895881BFCCFFB01DC014150EB
:10584000504048F005900D920020C9F701C01D920C
:1058500041505040E0F70895FB0155915523A9F0C0
:10586000BF01DC014D9145174111E1F759F4CD011C
:105870000590002049F04D9140154111C9F3FB01FD
:105880004111EFCF81E090E001970895FB01DC0129
:1058900004C08D910190801921F441505040C8F707
:1058A000881B990B0895FB01DC0102C001900D9249
:1058B00041505040D8F70895FB01DC018D918134AF
:1058C0001CF08B350CF4805E619161341CF06B35FB
:1058D0000CF4605E861B611189F3990B0895FB013E
:1058E000DC010D900020E9F7119701900D92002046
:1058F000E1F70895FC018191861721F08823D9F7FB
:10590000992708953197CF010895FB01DC018D910E
:10591000019080190110D9F3990B0895FB01DC0166
:1059200001900D920020E1F70895FB01DC01415048
:10593000504030F08D910190801919F40020B9F792
:10594000881B990B0895FB01DC014150504048F041
:1059500001900D920020C9F701C01D9241505040A6
:10596000E0F70895AEE0B0E0E8EBFCE20D94420809
:105970000E891F898EE08C831A8309838FEF9FE73E
:105980009E838D839E01265E3F4FCE010196688DDA
:10599000798DA9010E94D62C2F813885020F131F03
:1059A000F80110822E96E4E00D945E08ABE0B0E0C2
:1059B000ECEDFCE20D9434083C012B015A01FC0192
:1059C00017821682838181FD03C06FEF7FEFC6C10E
:1059D0009AE0892E1E010894211C311CF3012381B9
:1059E000F20123FD859123FF81912F01882309F482
:1059F000B2C1853239F423FD859123FF81912F01B6
:105A0000853229F490E0B3010E94C92EE7CF982F88
:105A1000FF24EE249924FFE1FF15D0F09B3269F0BA
:105A20009C3228F4903259F0933291F40EC09D329A
:105A300049F0903369F441E024C052E0F52A84E053
:105A4000F82A28C098E0F92A25C0E0E1FE2A22C001
:105A5000F7FC29C0892F80538A3070F4F6FE05C008
:105A6000989C902C1124980E15C0E89CE02C1124D1
:105A7000E80EF0E2FF2A0EC09E3229F4F6FC6BC15C
:105A800040E4F42A07C09C3619F450E8F52A02C015
:105A9000983649F4F20123FD959123FF91912F014E
:105AA000992309F0B8CF892F8554833018F080529C
:105AB000833038F444E050E0A40EB51E5FE3598310
:105AC0000FC0933631F0933779F0933509F056C013
:105AD00020C0F5018081898342E050E0A40EB51E0C
